:100000000C9463000C948B000C948B000C948B006C
:100010000C948B000C948B000C948B000C948B0034
:100020000C948B000C948B000C948B000C948B0024
:100030000C948B000C948B000C948B000C948B0014
:100040000C9426030C948B000C94D7010C948B0019
:100050000C948B000C948B000C948B000C948B00F4
:100060000C948B000C948B000000000024002700EF
:100070002A0000000000250028002B0000000000DE
:1000800023002600290004040404040404040202DA
:100090000202020203030303030301020408102007
:1000A0004080010204081020010204081020000012
:1000B0000007000201000003040600000000000029
:1000C00000000401B80211241FBECFEFD4E0DEBF50
:1000D000CDBF11E0A0E0B1E0E0E1FAE002C00590A0
:1000E0000D92AA30B107D9F711E0AAE0B1E001C042
:1000F0001D92A83CB107E1F710E0C6ECD0E004C0C7
:100100002297FE010E940205C23CD107C9F70E9456
:10011000D0010C9406050C940000FC01608341831F
:10012000128213821482158208950F931F938C01FB
:100130009A01AB01FC01228333834483558360E43D
:1001400072E48FE090E00E94D104F80137832683A7
:10015000818161E00E940004F801868197810E94FC
:1001600098031F910F910895CF92DF92EF92FF9223
:100170000F931F93CF93DF937C01FC01C681D7813E
:10018000F70180810E944D04892BD1F7F70180810E
:100190000E944D04892B19F00FEF1FEF2BC09DEF2C
:1001A000C92E9FEFD92ECC0EDD1EC60162E070E095
:1001B0000E949C04CB0103970E94980300E010E08A
:1001C000C0E0D0E0C6010E949803F70180810E9440
:1001D0004D040C2E02C0880F991F0A94E2F7082BD9
:1001E000192B2196C830D10569F7F70186819781CF
:1001F0000E949803C801DF91CF911F910F91FF904A
:10020000EF90DF90CF90089582E191E062E043E0CB
:100210000E948D000895E0911C01F0911D018091D4
:100220001A0190911B0160910E0170910F010196CE
:100230000E949C049C0190931B0180931A01609181
:10024000100170911101CF0101960E949C049093BE
:100250001D0180931C01245F31401CF48DE061E09E
:1002600002C08DE060E00E94000480911C0190912A
:100270001D01845F91401CF48CE061E002C08CE0C1
:1002800060E00E94000408958DEA91E00E947D02E2
:1002900020910A0130910B012130310591F48091B8
:1002A0000C0190910D01019739F488EE93E0909341
:1002B0000F0180930E0117C030930F0120930E01A0
:1002C00012C02230310579F480910C0190910D011A
:1002D000019719F488EE93E002C081E090E09093DA
:1002E0001101809310010E940B010895CF93DF93B9
:1002F00087E060E00E94000482E191E00E94B40087
:1003000080931E018A3059F4CFE1D1E082E191E07F
:100310000E94B400899381E0C932D807B9F78DEA09
:1003200091E06AEB0E94A50287E061E00E94000470
:10033000DF91CF91089582E060E00E94E00383E0C6
:1003400061E00E94E00387E061E00E94E00388E052
:1003500060E00E94E0038DE061E00E94E0038CE039
:1003600061E00E94E00387E061E00E9400048DEA02
:1003700091E040E855E260E070E00E94140282E102
:1003800091E040E659E060E070E00E9495000E9434
:10039000760164EF71E080E090E00E946E030895C2
:1003A0000E94A6030E949B010E944401FDCF1F9260
:1003B0000F920FB60F9211242F933F934F935F9399
:1003C0006F937F938F939F93AF93BF93EF93FF931D
:1003D0004091C600E091A901F091AA01CF010196D8
:1003E00060E870E00E949C049C018091AB019091B8
:1003F000AC012817390739F0E75DFE4F4083309391
:10040000AA012093A901FF91EF91BF91AF919F9114
:100410008F917F916F915F914F913F912F910F90AD
:100420000FBE0F901F901895AF92BF92CF92DF92A0
:10043000EF92FF920F931F93CF93DF936C017A019A
:100440008B01DC011496AD90BC901597CB01BA01DD
:1004500022E030E040E050E00E94D104205C3D4BBF
:10046000404F5F4FCA01B901A80197010E94D10412
:10047000C901DA010197A109B109292F3A2F4B2FA0
:10048000552747FD5A950196A11DB11DE501288309
:10049000E601EE81FF8181508083EA85FB85208122
:1004A00041E050E0CA010E8402C0880F991F0A94EF
:1004B000E2F7282B2083EA85FB852081CA010F847F
:1004C00002C0880F991F0A94E2F7282B2083EA853F
:1004D000FB858081088802C0440F551F0A94E2F70B
:1004E000842B8083DF91CF911F910F91FF90EF902C
:1004F000DF90CF90BF90AF900895CF93DF93DC0152
:100500001296ED91FC911397EF01CE57DF4F488182
:100510005981E058FF4F80819181E058F040841765
:10052000950719F42FEF3FEF0CC0E40FF51F208162
:10053000CA01019660E870E00E949C049983888358
:1005400030E0C901DF91CF910895FC01A085B1850C
:1005500021898C9190E0022E02C0959587950A948E
:10056000E2F780FFF6CF0484F585E02D60830895DF
:1005700084E091E09093AE018093AD0189E291E037
:100580009093B0018093AF0185EC90E09093B2011D
:100590008093B10184EC90E09093B4018093B30117
:1005A00080EC90E09093B6018093B50181EC90E0EF
:1005B0009093B8018093B70186EC90E09093BA01D4
:1005C0008093B90184E08093BB0183E08093BC01F8
:1005D00087E08093BD0185E08093BE0108950F936D
:1005E0001F93CF93DF938C01EB0109C02196D801B3
:1005F000ED91FC910190F081E02DC8010995688191
:100600006623A1F7DF91CF911F910F910895EF928B
:10061000FF920F931F93CF93DF938C017B01EA012D
:100620000CC0D7016D917D01D801ED91FC91019035
:10063000F081E02DC80109952197209791F7DF916E
:10064000CF911F910F91FF90EF9008951F920F92FD
:100650000FB60F9211242F933F938F939F93AF93D5
:10066000BF938091C3019091C401A091C501B09145
:10067000C6013091C7010196A11DB11D232F2D5F29
:100680002D3720F02D570196A11DB11D2093C701D4
:100690008093C3019093C401A093C501B093C60198
:1006A0008091BF019091C001A091C101B091C201A0
:1006B0000196A11DB11D8093BF019093C001A0932D
:1006C000C101B093C201BF91AF919F918F913F91B2
:1006D0002F910F900FBE0F901F901895EF92FF92E1
:1006E0000F931F937B018C018FB7F8944091C30146
:1006F0005091C4016091C5017091C6018FBF2FB7A1
:10070000F8948091C3019091C401A091C501B0916A
:10071000C6012FBF841B950BA60BB70BE816F90675
:100720000A071B0760F71F910F91FF90EF90089544
:10073000019759F0FC01EE0FFF1FEE0FFF1F3297DC
:100740008FB7F8943197F1F78FBF0895789484B5F7
:10075000826084BD84B5816084BD85B5826085BDBD
:1007600085B5816085BDEEE6F0E0808181608083A3
:10077000E1E8F0E080818260808380818160808315
:10078000E0E8F0E0808181608083E1EBF0E080814F
:1007900084608083E0EBF0E0808181608083EAE721
:1007A000F0E08081846080838081826080838081AA
:1007B000816080838081806880831092C100089569
:1007C000282F30E0C90186569F4FFC0194912A578B
:1007D0003F4FF9018491882391F0E82FF0E0EE0F6C
:1007E000FF1FE859FF4FA591B491662329F48C911E
:1007F000909589238C9308958C91892B8C930895DF
:10080000482F50E0CA0182559F4FFC012491CA0134
:1008100086569F4FFC0194914A575F4FFA013491DD
:100820003323D1F1222331F1233021F48091800050
:100830008F7705C0243031F4809180008F7D8093C4
:10084000800018C0213019F484B58F7704C022309D
:1008500021F484B58F7D84BD0DC0263021F48091B4
:10086000B0008F7705C0273029F48091B0008F7DCC
:100870008093B000E32FF0E0EE0FFF1FEE58FF4F24
:10088000A591B491662329F48C91909589238C933A
:1008900008958C91892B8C930895682F70E0CB017B
:1008A00082559F4FFC012491CB0186569F4FFC013E
:1008B00044916A577F4FFB019491992319F420E0EA
:1008C00030E038C0222331F1233021F480918000C0
:1008D0008F7705C0243031F4809180008F7D809324
:1008E000800018C0213019F484B58F7704C02230FD
:1008F00021F484B58F7D84BD0DC0263021F4809114
:10090000B0008F7705C0273029F48091B0008F7D2B
:100910008093B000892F90E0880F991F84589F4FD3
:10092000FC01A591B4918C9120E030E0842311F07A
:1009300021E030E0C901089597FB092E07260AD06F
:1009400077FD04D049D006D000201AF47095619547
:100950007F4F0895F6F7909581959F4F0895A1E2F6
:100960001A2EAA1BBB1BFD010DC0AA1FBB1FEE1F29
:10097000FF1FA217B307E407F50720F0A21BB30B74
:10098000E40BF50B661F771F881F991F1A9469F7F0
:1009900060957095809590959B01AC01BD01CF014C
:1009A000089597FB092E05260ED057FD04D0D7DFFA
:1009B0000AD0001C38F450954095309521953F4F52
:1009C0004F4F5F4F0895F6F790958095709561951C
:1009D0007F4F8F4F9F4F0895AA1BBB1B51E107C04C
:1009E000AA1FBB1FA617B70710F0A61BB70B881FBF
:1009F000991F5A95A9F780959095BC01CD0108954E
:100A0000EE0FFF1F0590F491E02D0994F894FFCFAD
:0A0A100000000000A502EF0207033A
:00000001FF
