:100000000C945C000C947C020C94A9020C94840067
:100010000C9484000C9484000C9484000C94840050
:100020000C9484000C9484000C9484000C94840040
:100030000C9484000C9484000C9484000C94840030
:100040000C94D6020C9484000C945A040C948400F2
:100050000C9484000C9484000C9484000C94840010
:100060000C9484000C948400000024272A000025AE
:10007000282B000023262904040404040404040299
:100080000202020202030303030303010204081035
:100090002040800102040810200102040810200002
:1000A0000000070002010000030406000000000039
:1000B0000000000046011C0211241FBECFEFD4E057
:1000C000DEBFCDBF11E0A0E0B1E0E4E4FAE002C0A1
:1000D00005900D92A838B107D9F712E0A8E8B1E071
:1000E00001C01D92A733B107E1F710E0C8EBD0E0E3
:1000F00004C02297FE010E941C05C43BD107C9F72A
:100100000E9415020C9420050C940000FC01108242
:100110008FEF81830895EF92FF920F931F93CF93F8
:10012000DF93EC019B0177FF03C020E030E005C0C6
:10013000653B710514F024EB30E02983EA806B8184
:1001400070E06E197109882777FD8095982F982F98
:10015000872F762F662730E040E050E00E9497041A
:1001600024EB30E040E050E00E94EB04FF2400E08C
:1001700010E0102F0F2DFE2CEE24E20EF31E041FB4
:10018000151FC801B70128E030E040E050E00E94B0
:10019000EB048881893029F430938900209388000A
:1001A00006C08A3021F430938B0020938A00DF91BF
:1001B000CF911F910F91FF90EF900895CF93DF9310
:1001C000EC01FB01CB010997029710F080E054C0CD
:1001D000CA0160E170E00E94B6046A83C90160E16F
:1001E00070E00E94B6046B83E8838FEF898360E040
:1001F0008E2F0E949E0361E088810E94800380917F
:100200008801882311F5809189018823F1F42FB7A3
:10021000F89482E0809380008AE18093810088EBEB
:100220009BE0909389008093880090938B0080934B
:100230008A0080E49CE990938700809386008091F7
:100240006F00887F80936F002FBF8881893041F4D1
:1002500081E080938801809180008F73806809C05D
:100260008A3049F481E080938901809180008F7CFD
:1002700080628093800081E0DF91CF91089520E635
:1002800039E040E252E00E94DE0008958AE891E001
:100290000E948600089510929A011092990110927E
:1002A0009C0110929B0118C0862F80538A3048F51C
:1002B000E0919901F0919A01E157FE4F608381EA44
:1002C00091E00E9461028091990190919A010196BA
:1002D00090939A018093990181EA91E00E942A0209
:1002E000882379F08091990190919A0103974CF4B9
:1002F00081EA91E00E942702682F80938E0180346A
:1003000099F6E0919901F0919A01309709F458C05B
:10031000E157FE4F108260E071E081EA91E00E94B7
:1003200032026FE871E081EA91E00E9432026AE0F5
:1003300071E081EA91E00E9432024091990150916E
:100340009A0120919B0130919C01F901E157FE4FE8
:1003500005C08081805381932F5F3F4F4217530721
:10036000C4F730939C0120939B0190918F0184E608
:100370009802B0011124809190012AE08202C0010C
:100380001124680F791F80919101992787FD90951D
:10039000680F791F7093A00160939F01653B710501
:1003A00038F066E171E081EA91E00E9471020895FF
:1003B0008AE891E00E948B001092A00110929F01A8
:1003C000089510929E0110929D0110929C0110922E
:1003D0009B0140E855E260E070E081EA91E00E9414
:1003E0002D0262E371E081EA91E00E94710266E40D
:1003F00071E081EA91E00E94710269E070E08AE8B0
:1004000091E00E943F0180919D0190919E01FC012D
:10041000E157FE4F02C01192019684309105DCF342
:1004200090939E0180939D0108950E9446030E942F
:10043000E1010E944B01FDCF86E891E09093A2017B
:100440008093A1010895862F0E94220408950E949E
:100450003B0408950E942A040895CB01BA010E942A
:10046000E90308950F931F93CF93DF938C01EB0162
:1004700009C02196D801ED91FC910190F081E02D09
:10048000C801099568816623A1F7DF91CF911F917B
:100490000F9108950F931F938C01DC01ED91FC9156
:1004A0000190F081E02D6DE00995D801ED91FC916E
:1004B0000190F081E02D6AE0C80109951F910F912C
:1004C00008950F931F938C01DC01ED91FC91019035
:1004D000F081E02D0995C8010E944A021F910F91F9
:1004E00008950F931F938C010E943202C8010E944D
:1004F0004A021F910F9108951F920F920FB60F920B
:1005000011242F933F934F935F936F937F938F9318
:100510009F93AF93BF93EF93FF938091A30190912B
:10052000A401892B29F0E091A301F091A401099580
:10053000FF91EF91BF91AF919F918F917F916F91BB
:100540005F914F913F912F910F900FBE0F901F9091
:1005500018951F920F920FB60F9211242F933F936D
:100560004F935F936F937F938F939F93AF93BF93BB
:10057000EF93FF938091A5019091A601892B29F01B
:10058000E091A501F091A6010995FF91EF91BF912E
:10059000AF919F918F917F916F915F914F913F911B
:1005A0002F910F900FBE0F901F9018951F920F92D2
:1005B0000FB60F9211242F938F939F93AF93BF93F6
:1005C0008091A7019091A801A091A901B091AA01E1
:1005D0000196A11DB11D8093A7019093A801A0933E
:1005E000A901B093AA018091AB019091AC01A091B7
:1005F000AD01B091AE018050904CAF4FBF4F809392
:10060000AB019093AC01A093AD01B093AE0127C0B4
:100610008091AB019091AC01A091AD01B091AE0180
:1006200080589E43A040B0408093AB019093AC01B2
:10063000A093AD01B093AE018091AF019091B00154
:10064000A091B101B091B2010196A11DB11D80939D
:10065000AF019093B001A093B101B093B20180912A
:10066000AB019091AC01A091AD01B091AE01815868
:100670009E43A040B04060F6BF91AF919F918F9193
:100680002F910F900FBE0F901F901895789484B5FE
:10069000826084BD84B5816084BD85B5826085BD7E
:1006A00085B5816085BDEEE6F0E080818160808364
:1006B000E1E8F0E0808182608083808181608083D6
:1006C000E0E8F0E0808181608083E1EBF0E0808110
:1006D00084608083E0EBF0E0808181608083EAE7E2
:1006E000F0E080818460808380818260808380816B
:1006F000816080838081806880831092C10008952A
:10070000282F30E0C90185579F4FFC01949129584B
:100710003F4FF9018491882381F0E82FF0E0E859F8
:10072000FF4FE491F0E0662329F4808190958923BE
:10073000808308958081892B80830895482F50E01D
:10074000CA0181569F4FFC012491CA0185579F4FD2
:10075000FC01949149585F4FFA0134913323C1F160
:10076000222331F1233021F4809180008F7705C05E
:10077000243031F4809180008F7D8093800018C0F8
:10078000213019F484B58F7704C0223021F484B568
:100790008F7D84BD0DC0263021F48091B0008F770D
:1007A00005C0273029F48091B0008F7D8093B00080
:1007B000E32FF0E0E359FF4FE491F0E0662329F4E2
:1007C000808190958923808308958081892B8083FF
:1007D0000895EF92FF920F931F937B018C0122E00B
:1007E00030E040E050E00E94EB04205C3D4B404F85
:1007F0005F4FCA01B901A80197010E94EB04C9012A
:10080000DA010197A109B109292F3A2F4B2F55275A
:1008100047FD5A950196A11DB11D2093C500815039
:100820008093C400E1ECF0E080818061808380816E
:10083000886080838081806880831F910F91FF9002
:10084000EF900895982F8091C00085FFFCCF909382
:10085000C60008958091B3019091B40180589F4FD4
:100860002091B5013091B601821B930B60E870E0D6
:100870000E94B60408954091B5015091B60180914F
:10088000B3019091B4018417950719F42FEF3FEF4E
:100890000FC0FA01E954FE4F2081CA01019660E8B9
:1008A00070E00E94B6049093B6018093B50130E0E9
:1008B000C90108951F920F920FB60F9211242F9322
:1008C0003F934F935F936F937F938F939F93AF93D8
:1008D000BF93EF93FF934091C600E091B301F09175
:1008E000B401CF01019660E870E00E94B6049C015B
:1008F0008091B5019091B6012817390739F0E95474
:10090000FE4F40833093B4012093B301FF91EF91E8
:10091000BF91AF919F918F917F916F915F914F9117
:100920003F912F910F900FBE0F901F901895629FCF
:10093000D001739FF001829FE00DF11D649FE00DD7
:10094000F11D929FF00D839FF00D749FF00D659F38
:10095000F00D9927729FB00DE11DF91F639FB00D37
:10096000E11DF91FBD01CF011124089597FB092E48
:1009700007260AD077FD04D049D006D000201AF40B
:10098000709561957F4F0895F6F7909581959F4FEB
:100990000895A1E21A2EAA1BBB1BFD010DC0AA1FC0
:1009A000BB1FEE1FFF1FA217B307E407F50720F0D8
:1009B000A21BB30BE40BF50B661F771F881F991F53
:1009C0001A9469F760957095809590959B01AC019C
:1009D000BD01CF01089597FB092E05260ED057FDC6
:1009E00004D0D7DF0AD0001C38F4509540953095DC
:1009F00021953F4F4F4F5F4F0895F6F790958095A3
:100A0000709561957F4F8F4F9F4F0895AA1BBB1B19
:100A100051E107C0AA1FBB1FA617B70710F0A61BFE
:100A2000B70B881F991F5A95A9F780959095BC011F
:100A3000CD010895EE0FFF1F0590F491E02D09946C
:040A4000F894FFCF58
:100A44000A53656E64696E67200020746F207365B5
:100A540072766F2E0A000A4552524F52206F7574F7
:100A6400206F662072616E676520303C783C3138B7
:100A74003000536572766F5F426F61726420526515
:100A84006164790A0A0053657269616C20666F7249
:100A94006D61743A202323230A09287768657265F7
:100AA4002023232320697320616E676C65206265AF
:100AB400747765656E203020616E6420313830298A
:080AC4000A00000000002302FB
:00000001FF
