:100000000C945B000C94A2020C94CF020C9483001D
:100010000C9483000C9483000C9483000C94830054
:100020000C9483000C9483000C9483000C94830044
:100030000C9483000C9483000C9483000C94830034
:100040000C94FC020C9483000C94D8040C94830050
:100050000C9483000C9483000C9483000C94830014
:100060000C9483000C948300000024272A000025B0
:10007000282B000023262904040404040404040299
:100080000202020202030303030303010204081035
:100090002040800102040810200102040810200002
:1000A0000000070002010000030406000000000039
:1000B000000000003A0211241FBECFEFD4E0DEBFE3
:1000C000CDBF12E0A0E0B1E0E2E0FBE002C00590AD
:1000D0000D92AA39B107D9F713E0AAE9B2E001C03D
:1000E0001D92A035B107E1F710E0C6EBD0E004C0E7
:1000F0002297FE010E947B05C43BD107C9F70E94ED
:1001000033020C947F050C9400001092B5021092FB
:10011000B4021092B7021092B6021AC08AEB92E0B3
:100120000E9445028093A602682F8AEB92E00E940B
:1001300087028091B4029091B502FC01E955FD4F10
:100140002091A602208301969093B5028093B40279
:100150008AEB92E00E944802882301F7E091B40202
:10016000F091B502309709F422C1E955FD4F108294
:100170001092B7021092B60267EA72E08AEB92E040
:100180000E94970260E071E08AEB92E00E945802C0
:100190006091A7028AEB92E00E9450026091A8024F
:1001A0008AEB92E00E9450026091A9028AEB92E0F1
:1001B0000E9450026091AA028AEB92E00E945002D3
:1001C0006DE271E08AEB92E00E9458026091AB020E
:1001D0008AEB92E00E9450026FE271E08AEB92E0BB
:1001E0000E9458026091AD028AEB92E00E94500298
:1001F0006091AE028AEB92E00E9450026091AF02E1
:100200008AEB92E00E9450026091B0028AEB92E089
:100210000E9450026DE271E08AEB92E00E94580267
:100220006091B1028AEB92E00E9450024091B402C8
:100230005091B5022091B6023091B702F901E9550B
:10024000FD4F05C08081805381932F5F3F4F421740
:100250005307C4F73093B7022093B6028091A702E8
:10026000992787FD909528EE33E0829FB001839F08
:10027000700D929F700D11248091A80224E68202D5
:10028000C0011124680F791F8091AA02992787FD68
:100290009095680F791F8091A9022AE08202C0011F
:1002A0001124680F791F70939F0260939E02109231
:1002B0009B0210929A028091AB02181634F481E0EE
:1002C00090E090939B0280939A028091AD029927CF
:1002D00087FD909528EE33E0829FA001839F500D0B
:1002E000929F500D11248091AE0224E68202C0013B
:1002F0001124480F591F8091B002992787FD9095CE
:10030000480F591F8091AF022AE08202C0011124D8
:10031000480F591F5093A1024093A00210929D02D2
:1003200010929C028091B102181634F481E090E0A2
:1003300090939D0280939C026150744018F06EE58A
:1003400071E005C04150544038F06FE871E08AEB2D
:1003500092E00E949702089561EC71E08AEB92E0CE
:100360000E94970280919E0290919F0262E070E04D
:100370000E9415057093A3026093A2028091A002CF
:100380009091A10262E070E00E9415056093A402C2
:100390007093A5028AE00E94A60360919A0288E009
:1003A0000E941C0460919C028CE00E941C04089531
:1003B00010929B0210929A0210929D0210929C023F
:1003C0001092B5021092B4021092B7021092B602C7
:1003D0001092B9021092B80240E855E260E070E075
:1003E0008AEB92E00E944B0260EE71E08AEB92E0B1
:1003F0000E94970269EF71E08AEB92E00E949702F7
:100400006BE572E08AEB92E00E94970261E089E07E
:100410000E94FE0361E08AE00E94FE0361E088E042
:100420000E94FE0361E08CE00E94FE0310928000B7
:1004300082E18093810084EF91E090938700809324
:1004400086008091B8029091B902FC01E955FD4FF8
:1004500002C0119201968D309105DCF39093B902A0
:100460008093B80208950E946C030E94D8010E94F4
:100470008500FDCF87E992E09093BB028093BA029A
:100480000895862F0E94A00408950E94B90408953B
:100490000E94A8040895CB01BA010E946704089540
:1004A000DC01ED91FC910190F081E02D099508951A
:1004B0000F931F93CF93DF938C01EB0109C021961B
:1004C000D801ED91FC910190F081E02DC8010995D2
:1004D00068816623A1F7DF91CF911F910F91089555
:1004E0000F931F938C01DC01ED91FC910190F08141
:1004F000E02D6DE00995D801ED91FC910190F0811E
:10050000E02D6AE0C80109951F910F9108950F939E
:100510001F938C01DC01ED91FC910190F081E02DA5
:100520000995C8010E9470021F910F9108950F93C1
:100530001F938C010E945802C8010E9470021F91F3
:100540000F9108951F920F920FB60F9211242F93BF
:100550003F934F935F936F937F938F939F93AF934B
:10056000BF93EF93FF938091BC029091BD02892BC2
:1005700029F0E091BC02F091BD020995FF91EF9145
:10058000BF91AF919F918F917F916F915F914F91AB
:100590003F912F910F900FBE0F901F9018951F92B3
:1005A0000F920FB60F9211242F933F934F935F93A7
:1005B0006F937F938F939F93AF93BF93EF93FF932B
:1005C0008091BE029091BF02892B29F0E091BE027A
:1005D000F091BF020995FF91EF91BF91AF919F916B
:1005E0008F917F916F915F914F913F912F910F90DC
:1005F0000FBE0F901F9018951F920F920FB60F927B
:1006000011242F938F939F93AF93BF938091C00238
:100610009091C102A091C202B091C3020196A11DA6
:10062000B11D8093C0029093C102A093C202B09307
:10063000C3028091C4029091C502A091C602B091FC
:10064000C7028050904CAF4FBF4F8093C40290932D
:10065000C502A093C602B093C70227C08091C4020E
:100660009091C502A091C602B091C70280589E43E6
:10067000A040B0408093C4029093C502A093C602EC
:10068000B093C7028091C8029091C902A091CA029A
:10069000B091CB020196A11DB11D8093C802909329
:1006A000C902A093CA02B093CB028091C402909178
:1006B000C502A091C602B091C70281589E43A040D6
:1006C000B04060F6BF91AF919F918F912F910F90A5
:1006D0000FBE0F901F901895789484B5826084BDEA
:1006E00084B5816084BD85B5826085BD85B5816036
:1006F00085BDEEE6F0E0808181608083E1E8F0E096
:10070000808182608083808181608083E0E8F0E086
:10071000808181608083E1EBF0E080818460808370
:10072000E0EBF0E0808181608083EAE7F0E08081A7
:100730008460808380818260808380818160808307
:100740008081806880831092C10008951F93CF93A9
:10075000DF93182FEB0161E00E94FE03E12FF0E030
:10076000E156FF4F8491833051F48091800080687E
:1007700080938000D0938900C09388003BC0843070
:1007800051F480918000806280938000D0938B0030
:10079000C0938A002FC0813039F4209729F184B5A5
:1007A000806884BDC7BD26C0823039F42097E1F04F
:1007B00084B5806284BDC8BD1DC0863041F480917F
:1007C000B00080688093B000C093B30013C087303E
:1007D00041F48091B00080628093B000C093B40077
:1007E00009C0C038D10514F460E001C061E0812F78
:1007F0000E941C04DF91CF911F910895282F30E0B3
:10080000C90185579F4FFC01949129583F4FF90129
:100810008491882381F0E82FF0E0E859FF4FE491BC
:10082000F0E0662329F480819095892380830895E0
:100830008081892B80830895482F50E0CA0181561A
:100840009F4FFC012491CA0185579F4FFC01949151
:1008500049585F4FFA0134913323C1F1222331F11A
:10086000233021F4809180008F7705C0243031F44B
:10087000809180008F7D8093800018C0213019F412
:1008800084B58F7704C0223021F484B58F7D84BD78
:100890000DC0263021F48091B0008F7705C027303D
:1008A00029F48091B0008F7D8093B000E32FF0E0B9
:1008B000E359FF4FE491F0E0662329F4808190959D
:1008C0008923808308958081892B80830895EF9206
:1008D000FF920F931F937B018C0122E030E040E0F8
:1008E00050E00E944A05205C3D4B404F5F4FCA01DB
:1008F000B901A80197010E944A05C901DA010197CF
:10090000A109B109292F3A2F4B2F552747FD5A9599
:100910000196A11DB11D2093C50081508093C40094
:10092000E1ECF0E080818061808380818860808359
:100930008081806880831F910F91FF90EF900895D0
:10094000982F8091C00085FFFCCF9093C60008953A
:100950008091CC029091CD0280589F4F2091CE0281
:100960003091CF02821B930B60E870E00E94150566
:1009700008954091CE025091CF028091CC02909187
:10098000CD028417950719F42FEF3FEF0FC0FA013E
:10099000E053FD4F2081CA01019660E870E00E949B
:1009A00015059093CF028093CE0230E0C9010895DF
:1009B0001F920F920FB60F9211242F933F934F93D4
:1009C0005F936F937F938F939F93AF93BF93EF93B7
:1009D000FF934091C600E091CC02F091CD02CF018F
:1009E000019660E870E00E9415059C018091CE029E
:1009F0009091CF022817390739F0E053FD4F40831B
:100A00003093CD022093CC02FF91EF91BF91AF9133
:100A10009F918F917F916F915F914F913F912F9116
:100A20000F900FBE0F901F90189597FB092E072669
:100A30000AD077FD04D049D006D000201AF4709572
:100A400061957F4F0895F6F7909581959F4F089592
:100A5000A1E21A2EAA1BBB1BFD010DC0AA1FBB1FC2
:100A6000EE1FFF1FA217B307E407F50720F0A21B34
:100A7000B30BE40BF50B661F771F881F991F1A94A1
:100A800069F760957095809590959B01AC01BD01CB
:100A9000CF01089597FB092E05260ED057FD04D0EF
:100AA000D7DF0AD0001C38F4509540953095219539
:100AB0003F4F4F4F5F4F0895F6F790958095709593
:100AC00061957F4F8F4F9F4F0895AA1BBB1B51E12C
:100AD00007C0AA1FBB1FA617B70710F0A61BB70BAE
:100AE000881F991F5A95A9F780959095BC01CD0153
:100AF0000895EE0FFF1F0590F491E02D0994F894EE
:020B0000FFCF25
:100B02000A54687275737465722050696E203920B8
:100B120076616C756520616E642050696E203820A4
:100B2200646972656374696F6E3A200A000A000A8A
:100B320054687275737465722050696E203130206A
:100B420076616C756520616E642050696E20313269
:100B520020646972656374696F6E3A200A004552B7
:100B6200524F522054687275737465722050696EC8
:100B720020392076616C7565206F7574206F662050
:100B820072616E676520303C783C3130323400450A
:100B920052524F52205468727573746572205069B4
:100BA2006E2031302076616C7565206F7574206F10
:100BB200662072616E676520303C783C3130323499
:100BC200000A53656E64696E672076616C756520F4
:100BD200746F207468727573746572732E2E2E0092
:100BE20054687275737465725F426F6172645F31CB
:100BF2002052656164790A0A0053657269616C204A
:100C0200666F726D61743A2023232323642D23239C
:100C12002323440A09287768657265206420697372
:100C22002054687275737465722050696E20392081
:100C3200646972656374696F6E2C20442069732045
:100C420054687275737465722050696E2031302059
:100C5200646972656374696F6E29000956616C7507
:100C620065206D75737420626520626574776565B1
:100C72006E203020616E6420313032342E202044C8
:100C82006972656374696F6E2069732031206F72B7
:0A0C920020300000000000410200C5
:00000001FF
